:10000000374100001301C1FFB70100101305A00A1A
:10001000EF00000BEF00000C130A0500EF00800B4F
:1000200013158500336AAA00EF00C00A13150501F5
:10003000336AAA00EF00000A13158501336AAA008B
:10004000B71A0000130B0A00930B000063080B049F
:10005000EF004008B3CBAB00130C0500EF008007A6
:10006000B3CBAB0013158500336CAC00EF008006FA
:10007000B3CBAB0013150501336CAC00EF0080056A
:10008000B3CBAB0013158501336CAC0023A08A0100
:10009000938A4A00130BCBFF6FF05FFBEF008003E6
:1000A000631A75011305B00BEF00800137120000D1
:1000B000670002001305E00EEF0080006F000000F3
:1000C00003A2810013721200E31C02FE23A0A10010
:1000D0006780000037831E001303034803A28100DA
:1000E00013722200631802001303F3FFE30A03F004
:0C00F0006FF0DFFE03A5410067800000F8
:00000001FF
