:10000000374100001301C1FFB70100101305A00A1A
:10001000EF00400AEF00400B130A0500EF00C00A92
:1000200013158500336AAA00EF00000A13150501B5
:10003000336AAA00EF00400913158501336AAA004C
:10004000B71A0000130B0A00930B000063020B04A5
:10005000EF008007130C0500EF0000071315850063
:10006000336CAC00EF00400613150501336CAC0097
:10007000EF00800513158501336CAC0023A08A01C5
:10008000B3CB8B01938A4A00130BCBFF6FF01FFC9D
:10009000EF008003631A75011305B00BEF008001B8
:1000A00037120000670002001305E00EEF00800029
:1000B0006F00000003A2810013721200E31C02FE15
:1000C00023A0A1006780000003A281001372220018
:0C00D000E30C02FE03A541006780000065
:00000001FF
